{
  "_format": "hh-sol-artifact-1",
  "contractName": "DonacionTypefobia",
  "sourceName": "contracts/donacion-typefobia.sol",
  "abi": [
    {
      "inputs": [],
      "stateMutability": "nonpayable",
      "type": "constructor"
    },
    {
      "anonymous": false,
      "inputs": [
        {
          "indexed": true,
          "internalType": "address",
          "name": "Donador",
          "type": "address"
        },
        {
          "indexed": true,
          "internalType": "uint256",
          "name": "Monto",
          "type": "uint256"
        }
      ],
      "name": "Donacion",
      "type": "event"
    },
    {
      "inputs": [
        {
          "internalType": "address",
          "name": "nuevoAdmin",
          "type": "address"
        }
      ],
      "name": "cambiarAdmin",
      "outputs": [],
      "stateMutability": "nonpayable",
      "type": "function"
    },
    {
      "inputs": [
        {
          "internalType": "uint256",
          "name": "",
          "type": "uint256"
        }
      ],
      "name": "donaciones",
      "outputs": [
        {
          "internalType": "address",
          "name": "donador",
          "type": "address"
        },
        {
          "internalType": "uint256",
          "name": "monto",
          "type": "uint256"
        }
      ],
      "stateMutability": "view",
      "type": "function"
    },
    {
      "inputs": [],
      "name": "donar",
      "outputs": [],
      "stateMutability": "payable",
      "type": "function"
    },
    {
      "inputs": [],
      "name": "fondos",
      "outputs": [
        {
          "internalType": "uint256",
          "name": "",
          "type": "uint256"
        }
      ],
      "stateMutability": "view",
      "type": "function"
    },
    {
      "inputs": [
        {
          "internalType": "uint256",
          "name": "monto",
          "type": "uint256"
        }
      ],
      "name": "retirarFondos",
      "outputs": [],
      "stateMutability": "nonpayable",
      "type": "function"
    },
    {
      "inputs": [],
      "name": "total",
      "outputs": [
        {
          "internalType": "uint256",
          "name": "",
          "type": "uint256"
        }
      ],
      "stateMutability": "view",
      "type": "function"
    },
    {
      "stateMutability": "payable",
      "type": "receive"
    }
  ],
  "bytecode": "0x608060405234801561001057600080fd5b50336000806101000a81548173ffffffffffffffffffffffffffffffffffffffff021916908373ffffffffffffffffffffffffffffffffffffffff1602179055506109e3806100606000396000f3fe6080604052600436106100595760003560e01c806310b52cdd1461006d57806313fc9b12146100ab5780632ddbd13a146100b5578063412860c6146100e0578063a32aa71714610109578063ce17a6561461013257610068565b366100685761006661015d565b005b600080fd5b34801561007957600080fd5b50610094600480360381019061008f91906105db565b610224565b6040516100a2929190610658565b60405180910390f35b6100b3610268565b005b3480156100c157600080fd5b506100ca610301565b6040516100d79190610681565b60405180910390f35b3480156100ec57600080fd5b50610107600480360381019061010291906106c8565b610307565b005b34801561011557600080fd5b50610130600480360381019061012b91906105db565b6103d8565b005b34801561013e57600080fd5b50610147610598565b6040516101549190610681565b60405180910390f35b60405180604001604052803373ffffffffffffffffffffffffffffffffffffffff1681526020013481525060036000600154815260200190815260200160002060008201518160000160006101000a81548173ffffffffffffffffffffffffffffffffffffffff021916908373ffffffffffffffffffffffffffffffffffffffff160217905550602082015181600101559050506001600081548092919061020490610724565b9190505550346002600082825461021b919061076c565b92505081905550565b60036020528060005260406000206000915090508060000160009054906101000a900473ffffffffffffffffffffffffffffffffffffffff16908060010154905082565b678ac7230489e800003410156102b3576040517f08c379a00000000000000000000000000000000000000000000000000000000081526004016102aa906107fd565b60405180910390fd5b6102bb61015d565b343373ffffffffffffffffffffffffffffffffffffffff167f09c49f11f177bec19a4c004ce89880f9c7dfbb0922c2624a8be3af0fdf868daf60405160405180910390a3565b60025481565b60008054906101000a900473ffffffffffffffffffffffffffffffffffffffff1673ffffffffffffffffffffffffffffffffffffffff163373ffffffffffffffffffffffffffffffffffffffff1614610395576040517f08c379a000000000000000000000000000000000000000000000000000000000815260040161038c9061088f565b60405180910390fd5b806000806101000a81548173ffffffffffffffffffffffffffffffffffffffff021916908373ffffffffffffffffffffffffffffffffffffffff16021790555050565b60008054906101000a900473ffffffffffffffffffffffffffffffffffffffff1673ffffffffffffffffffffffffffffffffffffffff163373ffffffffffffffffffffffffffffffffffffffff1614610466576040517f08c379a000000000000000000000000000000000000000000000000000000000815260040161045d9061088f565b60405180910390fd5b600060149054906101000a900460ff16156104b6576040517f08c379a00000000000000000000000000000000000000000000000000000000081526004016104ad906108fb565b60405180910390fd5b6001600060146101000a81548160ff02191690831515021790555047811115610514576040517f08c379a000000000000000000000000000000000000000000000000000000000815260040161050b9061098d565b60405180910390fd5b60008054906101000a900473ffffffffffffffffffffffffffffffffffffffff1673ffffffffffffffffffffffffffffffffffffffff166108fc829081150290604051600060405180830381858888f1935050505015801561057a573d6000803e3d6000fd5b5060008060146101000a81548160ff02191690831515021790555050565b600047905090565b600080fd5b6000819050919050565b6105b8816105a5565b81146105c357600080fd5b50565b6000813590506105d5816105af565b92915050565b6000602082840312156105f1576105f06105a0565b5b60006105ff848285016105c6565b91505092915050565b600073ffffffffffffffffffffffffffffffffffffffff82169050919050565b600061063382610608565b9050919050565b61064381610628565b82525050565b610652816105a5565b82525050565b600060408201905061066d600083018561063a565b61067a6020830184610649565b9392505050565b60006020820190506106966000830184610649565b92915050565b6106a581610628565b81146106b057600080fd5b50565b6000813590506106c28161069c565b92915050565b6000602082840312156106de576106dd6105a0565b5b60006106ec848285016106b3565b91505092915050565b7f4e487b7100000000000000000000000000000000000000000000000000000000600052601160045260246000fd5b600061072f826105a5565b91507fffffffffffffffffffffffffffffffffffffffffffffffffffffffffffffffff8203610761576107606106f5565b5b600182019050919050565b6000610777826105a5565b9150610782836105a5565b925082820190508082111561079a576107996106f5565b5b92915050565b600082825260208201905092915050565b7f4465626520736572206d61796f722061203130204d4154494300000000000000600082015250565b60006107e76019836107a0565b91506107f2826107b1565b602082019050919050565b60006020820190508181036000830152610816816107da565b9050919050565b7f536f6c6f20646973706f6e69626c65207061726120656c2061646d696e69737460008201527f7261646f72000000000000000000000000000000000000000000000000000000602082015250565b60006108796025836107a0565b91506108848261081d565b604082019050919050565b600060208201905081810360008301526108a88161086c565b9050919050565b7f4e6f2072652d656e747261646100000000000000000000000000000000000000600082015250565b60006108e5600d836107a0565b91506108f0826108af565b602082019050919050565b60006020820190508181036000830152610914816108d8565b9050919050565b7f456c206d6f6e746f206573206d61796f7220616c2062616c616e63652064656c60008201527f20636f6e747261746f0000000000000000000000000000000000000000000000602082015250565b60006109776029836107a0565b91506109828261091b565b604082019050919050565b600060208201905081810360008301526109a68161096a565b905091905056fea26469706673582212205d0f51826881c5d177e6e5c450d16a23c82bab2110cd9506dd6f06a46af9ff3564736f6c63430008110033",
  "linkReferences": {},
  "deployedLinkReferences": {}
}